{
  "contractName": "ProCamelRiders",
  "abi": [
    {
      "inputs": [],
      "stateMutability": "nonpayable",
      "type": "constructor"
    },
    {
      "anonymous": false,
      "inputs": [
        {
          "indexed": true,
          "internalType": "address",
          "name": "owner",
          "type": "address"
        },
        {
          "indexed": true,
          "internalType": "address",
          "name": "approved",
          "type": "address"
        },
        {
          "indexed": true,
          "internalType": "uint256",
          "name": "tokenId",
          "type": "uint256"
        }
      ],
      "name": "Approval",
      "type": "event"
    },
    {
      "anonymous": false,
      "inputs": [
        {
          "indexed": true,
          "internalType": "address",
          "name": "owner",
          "type": "address"
        },
        {
          "indexed": true,
          "internalType": "address",
          "name": "operator",
          "type": "address"
        },
        {
          "indexed": false,
          "internalType": "bool",
          "name": "approved",
          "type": "bool"
        }
      ],
      "name": "ApprovalForAll",
      "type": "event"
    },
    {
      "anonymous": false,
      "inputs": [
        {
          "indexed": true,
          "internalType": "address",
          "name": "previousOwner",
          "type": "address"
        },
        {
          "indexed": true,
          "internalType": "address",
          "name": "newOwner",
          "type": "address"
        }
      ],
      "name": "OwnershipTransferred",
      "type": "event"
    },
    {
      "anonymous": false,
      "inputs": [
        {
          "indexed": true,
          "internalType": "address",
          "name": "from",
          "type": "address"
        },
        {
          "indexed": true,
          "internalType": "address",
          "name": "to",
          "type": "address"
        },
        {
          "indexed": true,
          "internalType": "uint256",
          "name": "tokenId",
          "type": "uint256"
        }
      ],
      "name": "Transfer",
      "type": "event"
    },
    {
      "inputs": [],
      "name": "_baseURL",
      "outputs": [
        {
          "internalType": "string",
          "name": "",
          "type": "string"
        }
      ],
      "stateMutability": "view",
      "type": "function",
      "constant": true
    },
    {
      "inputs": [],
      "name": "_provenanceHash",
      "outputs": [
        {
          "internalType": "string",
          "name": "",
          "type": "string"
        }
      ],
      "stateMutability": "view",
      "type": "function",
      "constant": true
    },
    {
      "inputs": [
        {
          "internalType": "address",
          "name": "to",
          "type": "address"
        },
        {
          "internalType": "uint256",
          "name": "tokenId",
          "type": "uint256"
        }
      ],
      "name": "approve",
      "outputs": [],
      "stateMutability": "nonpayable",
      "type": "function"
    },
    {
      "inputs": [
        {
          "internalType": "address",
          "name": "owner",
          "type": "address"
        }
      ],
      "name": "balanceOf",
      "outputs": [
        {
          "internalType": "uint256",
          "name": "",
          "type": "uint256"
        }
      ],
      "stateMutability": "view",
      "type": "function",
      "constant": true
    },
    {
      "inputs": [
        {
          "internalType": "uint256",
          "name": "tokenId",
          "type": "uint256"
        }
      ],
      "name": "getApproved",
      "outputs": [
        {
          "internalType": "address",
          "name": "",
          "type": "address"
        }
      ],
      "stateMutability": "view",
      "type": "function",
      "constant": true
    },
    {
      "inputs": [
        {
          "internalType": "address",
          "name": "owner",
          "type": "address"
        },
        {
          "internalType": "address",
          "name": "operator",
          "type": "address"
        }
      ],
      "name": "isApprovedForAll",
      "outputs": [
        {
          "internalType": "bool",
          "name": "",
          "type": "bool"
        }
      ],
      "stateMutability": "view",
      "type": "function",
      "constant": true
    },
    {
      "inputs": [],
      "name": "launchDate",
      "outputs": [
        {
          "internalType": "uint256",
          "name": "",
          "type": "uint256"
        }
      ],
      "stateMutability": "view",
      "type": "function",
      "constant": true
    },
    {
      "inputs": [],
      "name": "name",
      "outputs": [
        {
          "internalType": "string",
          "name": "",
          "type": "string"
        }
      ],
      "stateMutability": "view",
      "type": "function",
      "constant": true
    },
    {
      "inputs": [],
      "name": "owner",
      "outputs": [
        {
          "internalType": "address",
          "name": "",
          "type": "address"
        }
      ],
      "stateMutability": "view",
      "type": "function",
      "constant": true
    },
    {
      "inputs": [
        {
          "internalType": "uint256",
          "name": "tokenId",
          "type": "uint256"
        }
      ],
      "name": "ownerOf",
      "outputs": [
        {
          "internalType": "address",
          "name": "",
          "type": "address"
        }
      ],
      "stateMutability": "view",
      "type": "function",
      "constant": true
    },
    {
      "inputs": [],
      "name": "renounceOwnership",
      "outputs": [],
      "stateMutability": "nonpayable",
      "type": "function"
    },
    {
      "inputs": [
        {
          "internalType": "address",
          "name": "from",
          "type": "address"
        },
        {
          "internalType": "address",
          "name": "to",
          "type": "address"
        },
        {
          "internalType": "uint256",
          "name": "tokenId",
          "type": "uint256"
        }
      ],
      "name": "safeTransferFrom",
      "outputs": [],
      "stateMutability": "nonpayable",
      "type": "function"
    },
    {
      "inputs": [
        {
          "internalType": "address",
          "name": "from",
          "type": "address"
        },
        {
          "internalType": "address",
          "name": "to",
          "type": "address"
        },
        {
          "internalType": "uint256",
          "name": "tokenId",
          "type": "uint256"
        },
        {
          "internalType": "bytes",
          "name": "_data",
          "type": "bytes"
        }
      ],
      "name": "safeTransferFrom",
      "outputs": [],
      "stateMutability": "nonpayable",
      "type": "function"
    },
    {
      "inputs": [
        {
          "internalType": "address",
          "name": "operator",
          "type": "address"
        },
        {
          "internalType": "bool",
          "name": "approved",
          "type": "bool"
        }
      ],
      "name": "setApprovalForAll",
      "outputs": [],
      "stateMutability": "nonpayable",
      "type": "function"
    },
    {
      "inputs": [
        {
          "internalType": "bytes4",
          "name": "interfaceId",
          "type": "bytes4"
        }
      ],
      "name": "supportsInterface",
      "outputs": [
        {
          "internalType": "bool",
          "name": "",
          "type": "bool"
        }
      ],
      "stateMutability": "view",
      "type": "function",
      "constant": true
    },
    {
      "inputs": [],
      "name": "symbol",
      "outputs": [
        {
          "internalType": "string",
          "name": "",
          "type": "string"
        }
      ],
      "stateMutability": "view",
      "type": "function",
      "constant": true
    },
    {
      "inputs": [
        {
          "internalType": "uint256",
          "name": "tokenId",
          "type": "uint256"
        }
      ],
      "name": "tokenURI",
      "outputs": [
        {
          "internalType": "string",
          "name": "",
          "type": "string"
        }
      ],
      "stateMutability": "view",
      "type": "function",
      "constant": true
    },
    {
      "inputs": [
        {
          "internalType": "address",
          "name": "from",
          "type": "address"
        },
        {
          "internalType": "address",
          "name": "to",
          "type": "address"
        },
        {
          "internalType": "uint256",
          "name": "tokenId",
          "type": "uint256"
        }
      ],
      "name": "transferFrom",
      "outputs": [],
      "stateMutability": "nonpayable",
      "type": "function"
    },
    {
      "inputs": [
        {
          "internalType": "address",
          "name": "newOwner",
          "type": "address"
        }
      ],
      "name": "transferOwnership",
      "outputs": [],
      "stateMutability": "nonpayable",
      "type": "function"
    },
    {
      "inputs": [
        {
          "internalType": "uint256",
          "name": "count",
          "type": "uint256"
        }
      ],
      "name": "mint",
      "outputs": [],
      "stateMutability": "payable",
      "type": "function",
      "payable": true
    },
    {
      "inputs": [
        {
          "internalType": "string",
          "name": "provenanceHash",
          "type": "string"
        }
      ],
      "name": "setProvenanceHash",
      "outputs": [],
      "stateMutability": "nonpayable",
      "type": "function"
    },
    {
      "inputs": [
        {
          "internalType": "string",
          "name": "baseURI",
          "type": "string"
        }
      ],
      "name": "setBaseURL",
      "outputs": [],
      "stateMutability": "nonpayable",
      "type": "function"
    },
    {
      "inputs": [
        {
          "internalType": "uint256",
          "name": "value",
          "type": "uint256"
        }
      ],
      "name": "setMaxSupply",
      "outputs": [],
      "stateMutability": "nonpayable",
      "type": "function"
    },
    {
      "inputs": [],
      "name": "maxSupply",
      "outputs": [
        {
          "internalType": "uint256",
          "name": "",
          "type": "uint256"
        }
      ],
      "stateMutability": "view",
      "type": "function",
      "constant": true
    },
    {
      "inputs": [],
      "name": "totalSupply",
      "outputs": [
        {
          "internalType": "uint256",
          "name": "",
          "type": "uint256"
        }
      ],
      "stateMutability": "view",
      "type": "function",
      "constant": true
    }
  ],
  "bytecode": "0x6080604052610d056008553480156200001757600080fd5b506040518060400160405280600e81526020017f50726f43616d656c5269646572730000000000000000000000000000000000008152506040518060400160405280600481526020017f504352440000000000000000000000000000000000000000000000000000000081525081600090805190602001906200009c929190620001be565b508060019080519060200190620000b5929190620001be565b505050620000ea620000d5620000f0640100000000026401000000009004565b620000f8640100000000026401000000009004565b620002d3565b600033905090565b6000600660009054906101000a900473ffffffffffffffffffffffffffffffffffffffff16905081600660006101000a81548173ffffffffffffffffffffffffffffffffffffffff021916908373ffffffffffffffffffffffffffffffffffffffff1602179055508173ffffffffffffffffffffffffffffffffffffffff168173ffffffffffffffffffffffffffffffffffffffff167f8be0079c531659141344cd1fd0a4f28419497f9722a3daafe3b4186f6b6457e060405160405180910390a35050565b828054620001cc906200026e565b90600052602060002090601f016020900481019282620001f057600085556200023c565b82601f106200020b57805160ff19168380011785556200023c565b828001600101855582156200023c579182015b828111156200023b5782518255916020019190600101906200021e565b5b5090506200024b91906200024f565b5090565b5b808211156200026a57600081600090555060010162000250565b5090565b600060028204905060018216806200028757607f821691505b602082108114156200029e576200029d620002a4565b5b50919050565b7f4e487b7100000000000000000000000000000000000000000000000000000000600052602260045260246000fd5b61370b80620002e36000396000f3fe608060405260043610610183576000357c01000000000000000000000000000000000000000000000000000000009004806370a08231116100ee578063b88d4fde116100a7578063e985e9c511610081578063e985e9c514610536578063f2fde38b14610573578063f8eeed621461059c578063f9e0edae146105c757610183565b8063b88d4fde146104a5578063c87b56dd146104ce578063d5abeb011461050b57610183565b806370a08231146103b6578063715018a6146103f35780638da5cb5b1461040a57806395d89b4114610435578063a0712d6814610460578063a22cb4651461047c57610183565b806323b872dd1161014057806323b872dd146102aa57806342842e0e146102d357806349f2553a146102fc578063534308cc146103255780636352211e146103505780636f8b44b01461038d57610183565b806301ffc9a71461018857806306fdde03146101c5578063081812fc146101f0578063095ea7b31461022d578063109695231461025657806318160ddd1461027f575b600080fd5b34801561019457600080fd5b506101af60048036038101906101aa91906124aa565b6105f2565b6040516101bc91906129c9565b60405180910390f35b3480156101d157600080fd5b506101da6106d4565b6040516101e791906129e4565b60405180910390f35b3480156101fc57600080fd5b506102176004803603810190610212919061254d565b610766565b6040516102249190612962565b60405180910390f35b34801561023957600080fd5b50610254600480360381019061024f919061246a565b6107eb565b005b34801561026257600080fd5b5061027d60048036038101906102789190612504565b610903565b005b34801561028b57600080fd5b50610294610999565b6040516102a19190612c86565b60405180910390f35b3480156102b657600080fd5b506102d160048036038101906102cc9190612354565b6109aa565b005b3480156102df57600080fd5b506102fa60048036038101906102f59190612354565b610a0a565b005b34801561030857600080fd5b50610323600480360381019061031e9190612504565b610a2a565b005b34801561033157600080fd5b5061033a610ac0565b60405161034791906129e4565b60405180910390f35b34801561035c57600080fd5b506103776004803603810190610372919061254d565b610b4e565b6040516103849190612962565b60405180910390f35b34801561039957600080fd5b506103b460048036038101906103af919061254d565b610c00565b005b3480156103c257600080fd5b506103dd60048036038101906103d891906122e7565b610c86565b6040516103ea9190612c86565b60405180910390f35b3480156103ff57600080fd5b50610408610d3e565b005b34801561041657600080fd5b5061041f610dc6565b60405161042c9190612962565b60405180910390f35b34801561044157600080fd5b5061044a610df0565b60405161045791906129e4565b60405180910390f35b61047a6004803603810190610475919061254d565b610e82565b005b34801561048857600080fd5b506104a3600480360381019061049e919061242a565b611069565b005b3480156104b157600080fd5b506104cc60048036038101906104c791906123a7565b6111ea565b005b3480156104da57600080fd5b506104f560048036038101906104f0919061254d565b61124c565b60405161050291906129e4565b60405180910390f35b34801561051757600080fd5b506105206112f3565b60405161052d9190612c86565b60405180910390f35b34801561054257600080fd5b5061055d60048036038101906105589190612314565b6112fd565b60405161056a91906129c9565b60405180910390f35b34801561057f57600080fd5b5061059a600480360381019061059591906122e7565b611391565b005b3480156105a857600080fd5b506105b1611489565b6040516105be9190612c86565b60405180910390f35b3480156105d357600080fd5b506105dc61148f565b6040516105e991906129e4565b60405180910390f35b60007f80ac58cd000000000000000000000000000000000000000000000000000000007bffffffffffffffffffffffffffffffffffffffffffffffffffffffff1916827bffffffffffffffffffffffffffffffffffffffffffffffffffffffff191614806106bd57507f5b5e139f000000000000000000000000000000000000000000000000000000007bffffffffffffffffffffffffffffffffffffffffffffffffffffffff1916827bffffffffffffffffffffffffffffffffffffffffffffffffffffffff1916145b806106cd57506106cc8261151d565b5b9050919050565b6060600080546106e390612f41565b80601f016020809104026020016040519081016040528092919081815260200182805461070f90612f41565b801561075c5780601f106107315761010080835404028352916020019161075c565b820191906000526020600020905b81548152906001019060200180831161073f57829003601f168201915b5050505050905090565b600061077182611587565b6107b0576040517f08c379a00000000000000000000000000000000000000000000000000000000081526004016107a790612ba6565b60405180910390fd5b6004600083815260200190815260200160002060009054906101000a900473ffffffffffffffffffffffffffffffffffffffff169050919050565b60006107f682610b4e565b90508073ffffffffffffffffffffffffffffffffffffffff168373ffffffffffffffffffffffffffffffffffffffff161415610867576040517f08c379a000000000000000000000000000000000000000000000000000000000815260040161085e90612c26565b60405180910390fd5b8073ffffffffffffffffffffffffffffffffffffffff166108866115f3565b73ffffffffffffffffffffffffffffffffffffffff1614806108b557506108b4816108af6115f3565b6112fd565b5b6108f4576040517f08c379a00000000000000000000000000000000000000000000000000000000081526004016108eb90612b06565b60405180910390fd5b6108fe83836115fb565b505050565b61090b6115f3565b73ffffffffffffffffffffffffffffffffffffffff16610929610dc6565b73ffffffffffffffffffffffffffffffffffffffff161461097f576040517f08c379a000000000000000000000000000000000000000000000000000000000815260040161097690612bc6565b60405180910390fd5b80600990805190602001906109959291906120fb565b5050565b60006109a560076116b4565b905090565b6109bb6109b56115f3565b826116c2565b6109fa576040517f08c379a00000000000000000000000000000000000000000000000000000000081526004016109f190612c46565b60405180910390fd5b610a058383836117a0565b505050565b610a25838383604051806020016040528060008152506111ea565b505050565b610a326115f3565b73ffffffffffffffffffffffffffffffffffffffff16610a50610dc6565b73ffffffffffffffffffffffffffffffffffffffff1614610aa6576040517f08c379a0000000000000000000000000000000000000000000000000000000008152600401610a9d90612bc6565b60405180910390fd5b80600a9080519060200190610abc9291906120fb565b5050565b60098054610acd90612f41565b80601f0160208091040260200160405190810160405280929190818152602001828054610af990612f41565b8015610b465780601f10610b1b57610100808354040283529160200191610b46565b820191906000526020600020905b815481529060010190602001808311610b2957829003601f168201915b505050505081565b6000806002600084815260200190815260200160002060009054906101000a900473ffffffffffffffffffffffffffffffffffffffff169050600073ffffffffffffffffffffffffffffffffffffffff168173ffffffffffffffffffffffffffffffffffffffff161415610bf7576040517f08c379a0000000000000000000000000000000000000000000000000000000008152600401610bee90612b46565b60405180910390fd5b80915050919050565b610c086115f3565b73ffffffffffffffffffffffffffffffffffffffff16610c26610dc6565b73ffffffffffffffffffffffffffffffffffffffff1614610c7c576040517f08c379a0000000000000000000000000000000000000000000000000000000008152600401610c7390612bc6565b60405180910390fd5b8060088190555050565b60008073ffffffffffffffffffffffffffffffffffffffff168273ffffffffffffffffffffffffffffffffffffffff161415610cf7576040517f08c379a0000000000000000000000000000000000000000000000000000000008152600401610cee90612b26565b60405180910390fd5b600360008373ffffffffffffffffffffffffffffffffffffffff1673ffffffffffffffffffffffffffffffffffffffff168152602001908152602001600020549050919050565b610d466115f3565b73ffffffffffffffffffffffffffffffffffffffff16610d64610dc6565b73ffffffffffffffffffffffffffffffffffffffff1614610dba576040517f08c379a0000000000000000000000000000000000000000000000000000000008152600401610db190612bc6565b60405180910390fd5b610dc460006119fc565b565b6000600660009054906101000a900473ffffffffffffffffffffffffffffffffffffffff16905090565b606060018054610dff90612f41565b80601f0160208091040260200160405190810160405280929190818152602001828054610e2b90612f41565b8015610e785780601f10610e4d57610100808354040283529160200191610e78565b820191906000526020600020905b815481529060010190602001808311610e5b57829003601f168201915b5050505050905090565b600854610e8f60076116b4565b10610ecf576040517f08c379a0000000000000000000000000000000000000000000000000000000008152600401610ec690612c66565b60405180910390fd5b600081118015610ee05750600c8111155b610f1f576040517f08c379a0000000000000000000000000000000000000000000000000000000008152600401610f1690612ae6565b60405180910390fd5b66f523226980800081610f329190612dfd565b341015610f74576040517f08c379a0000000000000000000000000000000000000000000000000000000008152600401610f6b90612b86565b60405180910390fd5b60005b81811015610faf57610f896007611ac2565b610f9c33610f9760076116b4565b611ad8565b8080610fa790612fa4565b915050610f77565b506000610fba610dc6565b73ffffffffffffffffffffffffffffffffffffffff1634604051610fdd9061294d565b60006040518083038185875af1925050503d806000811461101a576040519150601f19603f3d011682016040523d82523d6000602084013e61101f565b606091505b50508091505080611065576040517f08c379a000000000000000000000000000000000000000000000000000000000815260040161105c90612aa6565b60405180910390fd5b5050565b6110716115f3565b73ffffffffffffffffffffffffffffffffffffffff168273ffffffffffffffffffffffffffffffffffffffff1614156110df576040517f08c379a00000000000000000000000000000000000000000000000000000000081526004016110d690612a86565b60405180910390fd5b80600560006110ec6115f3565b73ffffffffffffffffffffffffffffffffffffffff1673ffffffffffffffffffffffffffffffffffffffff16815260200190815260200160002060008473ffffffffffffffffffffffffffffffffffffffff1673ffffffffffffffffffffffffffffffffffffffff16815260200190815260200160002060006101000a81548160ff0219169083151502179055508173ffffffffffffffffffffffffffffffffffffffff166111996115f3565b73ffffffffffffffffffffffffffffffffffffffff167f17307eab39ab6107e8899845ad3d59bd9653f200f220920489ca2b5937696c31836040516111de91906129c9565b60405180910390a35050565b6111fb6111f56115f3565b836116c2565b61123a576040517f08c379a000000000000000000000000000000000000000000000000000000000815260040161123190612c46565b60405180910390fd5b61124684848484611ca6565b50505050565b606061125782611587565b611296576040517f08c379a000000000000000000000000000000000000000000000000000000000815260040161128d90612c06565b60405180910390fd5b60006112a0611d02565b905060008151116112c057604051806020016040528060008152506112eb565b806112ca84611d94565b6040516020016112db929190612929565b6040516020818303038152906040525b915050919050565b6000600854905090565b6000600560008473ffffffffffffffffffffffffffffffffffffffff1673ffffffffffffffffffffffffffffffffffffffff16815260200190815260200160002060008373ffffffffffffffffffffffffffffffffffffffff1673ffffffffffffffffffffffffffffffffffffffff16815260200190815260200160002060009054906101000a900460ff16905092915050565b6113996115f3565b73ffffffffffffffffffffffffffffffffffffffff166113b7610dc6565b73ffffffffffffffffffffffffffffffffffffffff161461140d576040517f08c379a000000000000000000000000000000000000000000000000000000000815260040161140490612bc6565b60405180910390fd5b600073ffffffffffffffffffffffffffffffffffffffff168173ffffffffffffffffffffffffffffffffffffffff16141561147d576040517f08c379a000000000000000000000000000000000000000000000000000000000815260040161147490612a26565b60405180910390fd5b611486816119fc565b50565b600b5481565b600a805461149c90612f41565b80601f01602080910402602001604051908101604052809291908181526020018280546114c890612f41565b80156115155780601f106114ea57610100808354040283529160200191611515565b820191906000526020600020905b8154815290600101906020018083116114f857829003601f168201915b505050505081565b60007f01ffc9a7000000000000000000000000000000000000000000000000000000007bffffffffffffffffffffffffffffffffffffffffffffffffffffffff1916827bffffffffffffffffffffffffffffffffffffffffffffffffffffffff1916149050919050565b60008073ffffffffffffffffffffffffffffffffffffffff166002600084815260200190815260200160002060009054906101000a900473ffffffffffffffffffffffffffffffffffffffff1673ffffffffffffffffffffffffffffffffffffffff1614159050919050565b600033905090565b816004600083815260200190815260200160002060006101000a81548173ffffffffffffffffffffffffffffffffffffffff021916908373ffffffffffffffffffffffffffffffffffffffff160217905550808273ffffffffffffffffffffffffffffffffffffffff1661166e83610b4e565b73ffffffffffffffffffffffffffffffffffffffff167f8c5be1e5ebec7d5bd14f71427d1e84f3dd0314c0f7b2291e5b200ac8c7c3b92560405160405180910390a45050565b600081600001549050919050565b60006116cd82611587565b61170c576040517f08c379a000000000000000000000000000000000000000000000000000000000815260040161170390612ac6565b60405180910390fd5b600061171783610b4e565b90508073ffffffffffffffffffffffffffffffffffffffff168473ffffffffffffffffffffffffffffffffffffffff16148061178657508373ffffffffffffffffffffffffffffffffffffffff1661176e84610766565b73ffffffffffffffffffffffffffffffffffffffff16145b80611797575061179681856112fd565b5b91505092915050565b8273ffffffffffffffffffffffffffffffffffffffff166117c082610b4e565b73ffffffffffffffffffffffffffffffffffffffff1614611816576040517f08c379a000000000000000000000000000000000000000000000000000000000815260040161180d90612be6565b60405180910390fd5b600073ffffffffffffffffffffffffffffffffffffffff168273ffffffffffffffffffffffffffffffffffffffff161415611886576040517f08c379a000000000000000000000000000000000000000000000000000000000815260040161187d90612a66565b60405180910390fd5b611891838383611f14565b61189c6000826115fb565b6001600360008573ffffffffffffffffffffffffffffffffffffffff1673ffffffffffffffffffffffffffffffffffffffff16815260200190815260200160002060008282546118ec9190612e57565b925050819055506001600360008473ffffffffffffffffffffffffffffffffffffffff1673ffffffffffffffffffffffffffffffffffffffff16815260200190815260200160002060008282546119439190612d76565b92505081905550816002600083815260200190815260200160002060006101000a81548173ffffffffffffffffffffffffffffffffffffffff021916908373ffffffffffffffffffffffffffffffffffffffff160217905550808273ffffffffffffffffffffffffffffffffffffffff168473ffffffffffffffffffffffffffffffffffffffff167fddf252ad1be2c89b69c2b068fc378daa952ba7f163c4a11628f55a4df523b3ef60405160405180910390a4505050565b6000600660009054906101000a900473ffffffffffffffffffffffffffffffffffffffff16905081600660006101000a81548173ffffffffffffffffffffffffffffffffffffffff021916908373ffffffffffffffffffffffffffffffffffffffff1602179055508173ffffffffffffffffffffffffffffffffffffffff168173ffffffffffffffffffffffffffffffffffffffff167f8be0079c531659141344cd1fd0a4f28419497f9722a3daafe3b4186f6b6457e060405160405180910390a35050565b6001816000016000828254019250508190555050565b600073ffffffffffffffffffffffffffffffffffffffff168273ffffffffffffffffffffffffffffffffffffffff161415611b48576040517f08c379a0000000000000000000000000000000000000000000000000000000008152600401611b3f90612b66565b60405180910390fd5b611b5181611587565b15611b91576040517f08c379a0000000000000000000000000000000000000000000000000000000008152600401611b8890612a46565b60405180910390fd5b611b9d60008383611f14565b6001600360008473ffffffffffffffffffffffffffffffffffffffff1673ffffffffffffffffffffffffffffffffffffffff1681526020019081526020016000206000828254611bed9190612d76565b92505081905550816002600083815260200190815260200160002060006101000a81548173ffffffffffffffffffffffffffffffffffffffff021916908373ffffffffffffffffffffffffffffffffffffffff160217905550808273ffffffffffffffffffffffffffffffffffffffff16600073ffffffffffffffffffffffffffffffffffffffff167fddf252ad1be2c89b69c2b068fc378daa952ba7f163c4a11628f55a4df523b3ef60405160405180910390a45050565b611cb18484846117a0565b611cbd84848484611f19565b611cfc576040517f08c379a0000000000000000000000000000000000000000000000000000000008152600401611cf390612a06565b60405180910390fd5b50505050565b6060600a8054611d1190612f41565b80601f0160208091040260200160405190810160405280929190818152602001828054611d3d90612f41565b8015611d8a5780601f10611d5f57610100808354040283529160200191611d8a565b820191906000526020600020905b815481529060010190602001808311611d6d57829003601f168201915b5050505050905090565b60606000821415611ddc576040518060400160405280600181526020017f30000000000000000000000000000000000000000000000000000000000000008152509050611f0f565b600082905060005b60008214611e0e578080611df790612fa4565b915050600a82611e079190612dcc565b9150611de4565b60008167ffffffffffffffff811115611e2a57611e296130da565b5b6040519080825280601f01601f191660200182016040528015611e5c5781602001600182028036833780820191505090505b5090505b60008514611f0857600182611e759190612e57565b9150600a85611e849190612fed565b6030611e909190612d76565b7f010000000000000000000000000000000000000000000000000000000000000002818381518110611ec557611ec46130ab565b5b60200101907effffffffffffffffffffffffffffffffffffffffffffffffffffffffffffff1916908160001a905350600a85611f019190612dcc565b9450611e60565b8093505050505b919050565b505050565b6000611f3a8473ffffffffffffffffffffffffffffffffffffffff166120e8565b156120db578373ffffffffffffffffffffffffffffffffffffffff1663150b7a02611f636115f3565b8786866040518563ffffffff167c0100000000000000000000000000000000000000000000000000000000028152600401611fa1949392919061297d565b602060405180830381600087803b158015611fbb57600080fd5b505af1925050508015611fec57506040513d601f19601f82011682018060405250810190611fe991906124d7565b60015b61206f573d806000811461201c576040519150601f19603f3d011682016040523d82523d6000602084013e612021565b606091505b50600081511415612067576040517f08c379a000000000000000000000000000000000000000000000000000000000815260040161205e90612a06565b60405180910390fd5b805181602001fd5b63150b7a027c0100000000000000000000000000000000000000000000000000000000027bffffffffffffffffffffffffffffffffffffffffffffffffffffffff1916817bffffffffffffffffffffffffffffffffffffffffffffffffffffffff1916149150506120e0565b600190505b949350505050565b600080823b905060008111915050919050565b82805461210790612f41565b90600052602060002090601f0160209004810192826121295760008555612170565b82601f1061214257805160ff1916838001178555612170565b82800160010185558215612170579182015b8281111561216f578251825591602001919060010190612154565b5b50905061217d9190612181565b5090565b5b8082111561219a576000816000905550600101612182565b5090565b60006121b16121ac84612cc6565b612ca1565b9050828152602081018484840111156121cd576121cc61310e565b5b6121d8848285612eff565b509392505050565b60006121f36121ee84612cf7565b612ca1565b90508281526020810184848401111561220f5761220e61310e565b5b61221a848285612eff565b509392505050565b60008135905061223181613679565b92915050565b60008135905061224681613690565b92915050565b60008135905061225b816136a7565b92915050565b600081519050612270816136a7565b92915050565b600082601f83011261228b5761228a613109565b5b813561229b84826020860161219e565b91505092915050565b600082601f8301126122b9576122b8613109565b5b81356122c98482602086016121e0565b91505092915050565b6000813590506122e1816136be565b92915050565b6000602082840312156122fd576122fc613118565b5b600061230b84828501612222565b91505092915050565b6000806040838503121561232b5761232a613118565b5b600061233985828601612222565b925050602061234a85828601612222565b9150509250929050565b60008060006060848603121561236d5761236c613118565b5b600061237b86828701612222565b935050602061238c86828701612222565b925050604061239d868287016122d2565b9150509250925092565b600080600080608085870312156123c1576123c0613118565b5b60006123cf87828801612222565b94505060206123e087828801612222565b93505060406123f1878288016122d2565b925050606085013567ffffffffffffffff81111561241257612411613113565b5b61241e87828801612276565b91505092959194509250565b6000806040838503121561244157612440613118565b5b600061244f85828601612222565b925050602061246085828601612237565b9150509250929050565b6000806040838503121561248157612480613118565b5b600061248f85828601612222565b92505060206124a0858286016122d2565b9150509250929050565b6000602082840312156124c0576124bf613118565b5b60006124ce8482850161224c565b91505092915050565b6000602082840312156124ed576124ec613118565b5b60006124fb84828501612261565b91505092915050565b60006020828403121561251a57612519613118565b5b600082013567ffffffffffffffff81111561253857612537613113565b5b612544848285016122a4565b91505092915050565b60006020828403121561256357612562613118565b5b6000612571848285016122d2565b91505092915050565b61258381612e8b565b82525050565b61259281612e9d565b82525050565b60006125a382612d28565b6125ad8185612d3e565b93506125bd818560208601612f0e565b6125c68161311d565b840191505092915050565b60006125dc82612d33565b6125e68185612d5a565b93506125f6818560208601612f0e565b6125ff8161311d565b840191505092915050565b600061261582612d33565b61261f8185612d6b565b935061262f818560208601612f0e565b80840191505092915050565b6000612648603283612d5a565b91506126538261312e565b604082019050919050565b600061266b602683612d5a565b91506126768261317d565b604082019050919050565b600061268e601c83612d5a565b9150612699826131cc565b602082019050919050565b60006126b1602483612d5a565b91506126bc826131f5565b604082019050919050565b60006126d4601983612d5a565b91506126df82613244565b602082019050919050565b60006126f7601783612d5a565b91506127028261326d565b602082019050919050565b600061271a602c83612d5a565b915061272582613296565b604082019050919050565b600061273d602583612d5a565b9150612748826132e5565b604082019050919050565b6000612760603883612d5a565b915061276b82613334565b604082019050919050565b6000612783602a83612d5a565b915061278e82613383565b604082019050919050565b60006127a6602983612d5a565b91506127b1826133d2565b604082019050919050565b60006127c9602083612d5a565b91506127d482613421565b602082019050919050565b60006127ec601483612d5a565b91506127f78261344a565b602082019050919050565b600061280f602c83612d5a565b915061281a82613473565b604082019050919050565b6000612832602083612d5a565b915061283d826134c2565b602082019050919050565b6000612855602983612d5a565b9150612860826134eb565b604082019050919050565b6000612878602f83612d5a565b91506128838261353a565b604082019050919050565b600061289b602183612d5a565b91506128a682613589565b604082019050919050565b60006128be600083612d4f565b91506128c9826135d8565b600082019050919050565b60006128e1603183612d5a565b91506128ec826135db565b604082019050919050565b6000612904602183612d5a565b915061290f8261362a565b604082019050919050565b61292381612ef5565b82525050565b6000612935828561260a565b9150612941828461260a565b91508190509392505050565b6000612958826128b1565b9150819050919050565b6000602082019050612977600083018461257a565b92915050565b6000608082019050612992600083018761257a565b61299f602083018661257a565b6129ac604083018561291a565b81810360608301526129be8184612598565b905095945050505050565b60006020820190506129de6000830184612589565b92915050565b600060208201905081810360008301526129fe81846125d1565b905092915050565b60006020820190508181036000830152612a1f8161263b565b9050919050565b60006020820190508181036000830152612a3f8161265e565b9050919050565b60006020820190508181036000830152612a5f81612681565b9050919050565b60006020820190508181036000830152612a7f816126a4565b9050919050565b60006020820190508181036000830152612a9f816126c7565b9050919050565b60006020820190508181036000830152612abf816126ea565b9050919050565b60006020820190508181036000830152612adf8161270d565b9050919050565b60006020820190508181036000830152612aff81612730565b9050919050565b60006020820190508181036000830152612b1f81612753565b9050919050565b60006020820190508181036000830152612b3f81612776565b9050919050565b60006020820190508181036000830152612b5f81612799565b9050919050565b60006020820190508181036000830152612b7f816127bc565b9050919050565b60006020820190508181036000830152612b9f816127df565b9050919050565b60006020820190508181036000830152612bbf81612802565b9050919050565b60006020820190508181036000830152612bdf81612825565b9050919050565b60006020820190508181036000830152612bff81612848565b9050919050565b60006020820190508181036000830152612c1f8161286b565b9050919050565b60006020820190508181036000830152612c3f8161288e565b9050919050565b60006020820190508181036000830152612c5f816128d4565b9050919050565b60006020820190508181036000830152612c7f816128f7565b9050919050565b6000602082019050612c9b600083018461291a565b92915050565b6000612cab612cbc565b9050612cb78282612f73565b919050565b6000604051905090565b600067ffffffffffffffff821115612ce157612ce06130da565b5b612cea8261311d565b9050602081019050919050565b600067ffffffffffffffff821115612d1257612d116130da565b5b612d1b8261311d565b9050602081019050919050565b600081519050919050565b600081519050919050565b600082825260208201905092915050565b600081905092915050565b600082825260208201905092915050565b600081905092915050565b6000612d8182612ef5565b9150612d8c83612ef5565b9250827fffffffffffffffffffffffffffffffffffffffffffffffffffffffffffffffff03821115612dc157612dc061301e565b5b828201905092915050565b6000612dd782612ef5565b9150612de283612ef5565b925082612df257612df161304d565b5b828204905092915050565b6000612e0882612ef5565b9150612e1383612ef5565b9250817fffffffffffffffffffffffffffffffffffffffffffffffffffffffffffffffff0483118215151615612e4c57612e4b61301e565b5b828202905092915050565b6000612e6282612ef5565b9150612e6d83612ef5565b925082821015612e8057612e7f61301e565b5b828203905092915050565b6000612e9682612ed5565b9050919050565b60008115159050919050565b60007fffffffff0000000000000000000000000000000000000000000000000000000082169050919050565b600073ffffffffffffffffffffffffffffffffffffffff82169050919050565b6000819050919050565b82818337600083830152505050565b60005b83811015612f2c578082015181840152602081019050612f11565b83811115612f3b576000848401525b50505050565b60006002820490506001821680612f5957607f821691505b60208210811415612f6d57612f6c61307c565b5b50919050565b612f7c8261311d565b810181811067ffffffffffffffff82111715612f9b57612f9a6130da565b5b80604052505050565b6000612faf82612ef5565b91507fffffffffffffffffffffffffffffffffffffffffffffffffffffffffffffffff821415612fe257612fe161301e565b5b600182019050919050565b6000612ff882612ef5565b915061300383612ef5565b9250826130135761301261304d565b5b828206905092915050565b7f4e487b7100000000000000000000000000000000000000000000000000000000600052601160045260246000fd5b7f4e487b7100000000000000000000000000000000000000000000000000000000600052601260045260246000fd5b7f4e487b7100000000000000000000000000000000000000000000000000000000600052602260045260246000fd5b7f4e487b7100000000000000000000000000000000000000000000000000000000600052603260045260246000fd5b7f4e487b7100000000000000000000000000000000000000000000000000000000600052604160045260246000fd5b600080fd5b600080fd5b600080fd5b600080fd5b6000601f19601f8301169050919050565b7f4552433732313a207472616e7366657220746f206e6f6e20455243373231526560008201527f63656976657220696d706c656d656e7465720000000000000000000000000000602082015250565b7f4f776e61626c653a206e6577206f776e657220697320746865207a65726f206160008201527f6464726573730000000000000000000000000000000000000000000000000000602082015250565b7f4552433732313a20746f6b656e20616c7265616479206d696e74656400000000600082015250565b7f4552433732313a207472616e7366657220746f20746865207a65726f2061646460008201527f7265737300000000000000000000000000000000000000000000000000000000602082015250565b7f4552433732313a20617070726f766520746f2063616c6c657200000000000000600082015250565b7f4661696c656420746f2073656e6420746f206f776e6572000000000000000000600082015250565b7f4552433732313a206f70657261746f7220717565727920666f72206e6f6e657860008201527f697374656e7420746f6b656e0000000000000000000000000000000000000000602082015250565b7f596f752063616e206d696e74206265747765656e203120616e6420313220617460008201527f206f6e6365000000000000000000000000000000000000000000000000000000602082015250565b7f4552433732313a20617070726f76652063616c6c6572206973206e6f74206f7760008201527f6e6572206e6f7220617070726f76656420666f7220616c6c0000000000000000602082015250565b7f4552433732313a2062616c616e636520717565727920666f7220746865207a6560008201527f726f206164647265737300000000000000000000000000000000000000000000602082015250565b7f4552433732313a206f776e657220717565727920666f72206e6f6e657869737460008201527f656e7420746f6b656e0000000000000000000000000000000000000000000000602082015250565b7f4552433732313a206d696e7420746f20746865207a65726f2061646472657373600082015250565b7f496e73756666696369656e74207061796d656e74000000000000000000000000600082015250565b7f4552433732313a20617070726f76656420717565727920666f72206e6f6e657860008201527f697374656e7420746f6b656e0000000000000000000000000000000000000000602082015250565b7f4f776e61626c653a2063616c6c6572206973206e6f7420746865206f776e6572600082015250565b7f4552433732313a207472616e73666572206f6620746f6b656e2074686174206960008201527f73206e6f74206f776e0000000000000000000000000000000000000000000000602082015250565b7f4552433732314d657461646174613a2055524920717565727920666f72206e6f60008201527f6e6578697374656e7420746f6b656e0000000000000000000000000000000000602082015250565b7f4552433732313a20617070726f76616c20746f2063757272656e74206f776e6560008201527f7200000000000000000000000000000000000000000000000000000000000000602082015250565b50565b7f4552433732313a207472616e736665722063616c6c6572206973206e6f74206f60008201527f776e6572206e6f7220617070726f766564000000000000000000000000000000602082015250565b7f43616e206e6f74206d696e74206d6f7265207468616e206d617820737570706c60008201527f7900000000000000000000000000000000000000000000000000000000000000602082015250565b61368281612e8b565b811461368d57600080fd5b50565b61369981612e9d565b81146136a457600080fd5b50565b6136b081612ea9565b81146136bb57600080fd5b50565b6136c781612ef5565b81146136d257600080fd5b5056fea26469706673582212207941731cd3c683de796c20c328f6d7369f376cc59e00b0b37e77ec3075bcfaba64736f6c63430008060033",
  "immutableReferences": {},
  "source": "// SPDX-License-Identifier: MIT\npragma solidity 0.8.6;\n\nimport \"@openzeppelin/contracts/token/ERC721/ERC721.sol\";\nimport \"@openzeppelin/contracts/utils/Counters.sol\";\nimport \"@openzeppelin/contracts/access/Ownable.sol\";\n\ncontract ProCamelRiders is ERC721, Ownable {\n    using Counters for Counters.Counter;\n    Counters.Counter private _tokenIds;\n\n    uint256 private _maxSupply = 3333;\n\n    string public _provenanceHash;\n    string public _baseURL;\n    uint256 public launchDate;\n\n\n    constructor() ERC721(\"ProCamelRiders\", \"PCRD\") {}\n\n    function mint(uint256 count) external payable {\n        require(_tokenIds.current() < _maxSupply, \"Can not mint more than max supply\");\n        require(count > 0 && count <= 12, \"You can mint between 1 and 12 at once\");\n        require(msg.value >= count * 0.069 ether, \"Insufficient payment\");\n        for (uint256 i = 0; i < count; i++) {\n            _tokenIds.increment();\n            _mint(msg.sender, _tokenIds.current());\n        }\n\n        bool success = false;\n        (success,) = owner().call{value : msg.value}(\"\");\n        require(success, \"Failed to send to owner\");\n    }\n\n    function setProvenanceHash(string memory provenanceHash) public onlyOwner {\n        _provenanceHash = provenanceHash;\n    }\n\n\n    function setBaseURL(string memory baseURI) public onlyOwner {\n        _baseURL = baseURI;\n    }\n\n\n    function setMaxSupply(uint256 value) public onlyOwner {\n        _maxSupply = value;\n    }\n\n    function _baseURI() internal view override returns (string memory) {\n        return _baseURL;\n    }\n \n\n    function maxSupply() public view returns (uint256) {\n        return _maxSupply;\n    }\n\n\n    function totalSupply() public view returns (uint256) {\n        return _tokenIds.current();\n    }\n}\n",
  "sourcePath": "/Users/macbook/projects/procamelriders/src/contracts/ProCamelRiders.sol",
  "compiler": {
    "name": "solc",
    "version": "0.8.6+commit.11564f7e.Emscripten.clang"
  },
  "schemaVersion": "3.4.3",
  "updatedAt": "2021-09-23T18:52:29.028Z",
  "networkType": "ethereum",
  "devdoc": {
    "kind": "dev",
    "methods": {
      "approve(address,uint256)": {
        "details": "See {IERC721-approve}."
      },
      "balanceOf(address)": {
        "details": "See {IERC721-balanceOf}."
      },
      "getApproved(uint256)": {
        "details": "See {IERC721-getApproved}."
      },
      "isApprovedForAll(address,address)": {
        "details": "See {IERC721-isApprovedForAll}."
      },
      "name()": {
        "details": "See {IERC721Metadata-name}."
      },
      "owner()": {
        "details": "Returns the address of the current owner."
      },
      "ownerOf(uint256)": {
        "details": "See {IERC721-ownerOf}."
      },
      "renounceOwnership()": {
        "details": "Leaves the contract without owner. It will not be possible to call `onlyOwner` functions anymore. Can only be called by the current owner. NOTE: Renouncing ownership will leave the contract without an owner, thereby removing any functionality that is only available to the owner."
      },
      "safeTransferFrom(address,address,uint256)": {
        "details": "See {IERC721-safeTransferFrom}."
      },
      "safeTransferFrom(address,address,uint256,bytes)": {
        "details": "See {IERC721-safeTransferFrom}."
      },
      "setApprovalForAll(address,bool)": {
        "details": "See {IERC721-setApprovalForAll}."
      },
      "supportsInterface(bytes4)": {
        "details": "See {IERC165-supportsInterface}."
      },
      "symbol()": {
        "details": "See {IERC721Metadata-symbol}."
      },
      "tokenURI(uint256)": {
        "details": "See {IERC721Metadata-tokenURI}."
      },
      "transferFrom(address,address,uint256)": {
        "details": "See {IERC721-transferFrom}."
      },
      "transferOwnership(address)": {
        "details": "Transfers ownership of the contract to a new account (`newOwner`). Can only be called by the current owner."
      }
    },
    "version": 1
  },
  "userdoc": {
    "kind": "user",
    "methods": {},
    "version": 1
  }
}